{
  "contractName": "NftR",
  "abi": [
    {
      "inputs": [],
      "stateMutability": "nonpayable",
      "type": "constructor"
    },
    {
      "anonymous": false,
      "inputs": [
        {
          "indexed": true,
          "internalType": "address",
          "name": "owner",
          "type": "address"
        },
        {
          "indexed": true,
          "internalType": "address",
          "name": "approved",
          "type": "address"
        },
        {
          "indexed": true,
          "internalType": "uint256",
          "name": "tokenId",
          "type": "uint256"
        }
      ],
      "name": "Approval",
      "type": "event"
    },
    {
      "anonymous": false,
      "inputs": [
        {
          "indexed": true,
          "internalType": "address",
          "name": "owner",
          "type": "address"
        },
        {
          "indexed": true,
          "internalType": "address",
          "name": "operator",
          "type": "address"
        },
        {
          "indexed": false,
          "internalType": "bool",
          "name": "approved",
          "type": "bool"
        }
      ],
      "name": "ApprovalForAll",
      "type": "event"
    },
    {
      "anonymous": false,
      "inputs": [
        {
          "indexed": true,
          "internalType": "address",
          "name": "from",
          "type": "address"
        },
        {
          "indexed": true,
          "internalType": "address",
          "name": "to",
          "type": "address"
        },
        {
          "indexed": true,
          "internalType": "uint256",
          "name": "tokenId",
          "type": "uint256"
        }
      ],
      "name": "Transfer",
      "type": "event"
    },
    {
      "inputs": [],
      "name": "admin",
      "outputs": [
        {
          "internalType": "address payable",
          "name": "",
          "type": "address"
        }
      ],
      "stateMutability": "view",
      "type": "function",
      "constant": true
    },
    {
      "inputs": [
        {
          "internalType": "address",
          "name": "to",
          "type": "address"
        },
        {
          "internalType": "uint256",
          "name": "tokenId",
          "type": "uint256"
        }
      ],
      "name": "approve",
      "outputs": [],
      "stateMutability": "nonpayable",
      "type": "function"
    },
    {
      "inputs": [
        {
          "internalType": "address",
          "name": "owner",
          "type": "address"
        }
      ],
      "name": "balanceOf",
      "outputs": [
        {
          "internalType": "uint256",
          "name": "",
          "type": "uint256"
        }
      ],
      "stateMutability": "view",
      "type": "function",
      "constant": true
    },
    {
      "inputs": [
        {
          "internalType": "uint256",
          "name": "tokenId",
          "type": "uint256"
        }
      ],
      "name": "getApproved",
      "outputs": [
        {
          "internalType": "address",
          "name": "",
          "type": "address"
        }
      ],
      "stateMutability": "view",
      "type": "function",
      "constant": true
    },
    {
      "inputs": [
        {
          "internalType": "address",
          "name": "owner",
          "type": "address"
        },
        {
          "internalType": "address",
          "name": "operator",
          "type": "address"
        }
      ],
      "name": "isApprovedForAll",
      "outputs": [
        {
          "internalType": "bool",
          "name": "",
          "type": "bool"
        }
      ],
      "stateMutability": "view",
      "type": "function",
      "constant": true
    },
    {
      "inputs": [
        {
          "internalType": "string",
          "name": "",
          "type": "string"
        }
      ],
      "name": "linkGenerated",
      "outputs": [
        {
          "internalType": "bool",
          "name": "",
          "type": "bool"
        }
      ],
      "stateMutability": "view",
      "type": "function",
      "constant": true
    },
    {
      "inputs": [
        {
          "internalType": "uint256",
          "name": "",
          "type": "uint256"
        }
      ],
      "name": "links",
      "outputs": [
        {
          "internalType": "string",
          "name": "",
          "type": "string"
        }
      ],
      "stateMutability": "view",
      "type": "function",
      "constant": true
    },
    {
      "inputs": [],
      "name": "minter",
      "outputs": [
        {
          "internalType": "address",
          "name": "",
          "type": "address"
        }
      ],
      "stateMutability": "view",
      "type": "function",
      "constant": true
    },
    {
      "inputs": [],
      "name": "name",
      "outputs": [
        {
          "internalType": "string",
          "name": "",
          "type": "string"
        }
      ],
      "stateMutability": "view",
      "type": "function",
      "constant": true
    },
    {
      "inputs": [
        {
          "internalType": "uint256",
          "name": "tokenId",
          "type": "uint256"
        }
      ],
      "name": "ownerOf",
      "outputs": [
        {
          "internalType": "address",
          "name": "",
          "type": "address"
        }
      ],
      "stateMutability": "view",
      "type": "function",
      "constant": true
    },
    {
      "inputs": [
        {
          "internalType": "address",
          "name": "from",
          "type": "address"
        },
        {
          "internalType": "address",
          "name": "to",
          "type": "address"
        },
        {
          "internalType": "uint256",
          "name": "tokenId",
          "type": "uint256"
        }
      ],
      "name": "safeTransferFrom",
      "outputs": [],
      "stateMutability": "nonpayable",
      "type": "function"
    },
    {
      "inputs": [
        {
          "internalType": "address",
          "name": "from",
          "type": "address"
        },
        {
          "internalType": "address",
          "name": "to",
          "type": "address"
        },
        {
          "internalType": "uint256",
          "name": "tokenId",
          "type": "uint256"
        },
        {
          "internalType": "bytes",
          "name": "_data",
          "type": "bytes"
        }
      ],
      "name": "safeTransferFrom",
      "outputs": [],
      "stateMutability": "nonpayable",
      "type": "function"
    },
    {
      "inputs": [
        {
          "internalType": "address",
          "name": "operator",
          "type": "address"
        },
        {
          "internalType": "bool",
          "name": "approved",
          "type": "bool"
        }
      ],
      "name": "setApprovalForAll",
      "outputs": [],
      "stateMutability": "nonpayable",
      "type": "function"
    },
    {
      "inputs": [
        {
          "internalType": "bytes4",
          "name": "interfaceId",
          "type": "bytes4"
        }
      ],
      "name": "supportsInterface",
      "outputs": [
        {
          "internalType": "bool",
          "name": "",
          "type": "bool"
        }
      ],
      "stateMutability": "view",
      "type": "function",
      "constant": true
    },
    {
      "inputs": [],
      "name": "symbol",
      "outputs": [
        {
          "internalType": "string",
          "name": "",
          "type": "string"
        }
      ],
      "stateMutability": "view",
      "type": "function",
      "constant": true
    },
    {
      "inputs": [
        {
          "internalType": "uint256",
          "name": "tokenId",
          "type": "uint256"
        }
      ],
      "name": "tokenURI",
      "outputs": [
        {
          "internalType": "string",
          "name": "",
          "type": "string"
        }
      ],
      "stateMutability": "view",
      "type": "function",
      "constant": true
    },
    {
      "inputs": [],
      "name": "totalSupply",
      "outputs": [
        {
          "internalType": "uint256",
          "name": "",
          "type": "uint256"
        }
      ],
      "stateMutability": "view",
      "type": "function",
      "constant": true
    },
    {
      "inputs": [
        {
          "internalType": "address",
          "name": "from",
          "type": "address"
        },
        {
          "internalType": "address",
          "name": "to",
          "type": "address"
        },
        {
          "internalType": "uint256",
          "name": "tokenId",
          "type": "uint256"
        }
      ],
      "name": "transferFrom",
      "outputs": [],
      "stateMutability": "nonpayable",
      "type": "function"
    },
    {
      "inputs": [
        {
          "internalType": "address",
          "name": "_minter",
          "type": "address"
        }
      ],
      "name": "setMinter",
      "outputs": [],
      "stateMutability": "nonpayable",
      "type": "function"
    },
    {
      "inputs": [
        {
          "internalType": "string",
          "name": "_link",
          "type": "string"
        },
        {
          "internalType": "address",
          "name": "_to",
          "type": "address"
        }
      ],
      "name": "mint",
      "outputs": [],
      "stateMutability": "nonpayable",
      "type": "function"
    },
    {
      "inputs": [
        {
          "internalType": "string",
          "name": "_link",
          "type": "string"
        }
      ],
      "name": "mintExtern",
      "outputs": [],
      "stateMutability": "nonpayable",
      "type": "function"
    }
  ],
  "bytecode": "0x60806040526000600a553480156200001657600080fd5b506040518060400160405280600481526020017f4e667452000000000000000000000000000000000000000000000000000000008152506040518060400160405280600481526020017f4e6674520000000000000000000000000000000000000000000000000000000081525081600090805190602001906200009b9291906200013f565b508060019080519060200190620000b49291906200013f565b50505033600760006101000a81548173ffffffffffffffffffffffffffffffffffffffff021916908373ffffffffffffffffffffffffffffffffffffffff16021790555030600660006101000a81548173ffffffffffffffffffffffffffffffffffffffff021916908373ffffffffffffffffffffffffffffffffffffffff16021790555062000254565b8280546200014d90620001ef565b90600052602060002090601f016020900481019282620001715760008555620001bd565b82601f106200018c57805160ff1916838001178555620001bd565b82800160010185558215620001bd579182015b82811115620001bc5782518255916020019190600101906200019f565b5b509050620001cc9190620001d0565b5090565b5b80821115620001eb576000816000905550600101620001d1565b5090565b600060028204905060018216806200020857607f821691505b602082108114156200021f576200021e62000225565b5b50919050565b7f4e487b7100000000000000000000000000000000000000000000000000000000600052602260045260246000fd5b612f5d80620002646000396000f3fe608060405234801561001057600080fd5b50600436106101375760003560e01c80636352211e116100b8578063a22cb4651161007c578063a22cb46514610360578063b88d4fde1461037c578063c87b56dd14610398578063e985e9c5146103c8578063f851a440146103f8578063fca3b5aa1461041657610137565b80636352211e1461028257806370a08231146102b25780637bfdc5c3146102e2578063881d8a401461031257806395d89b411461034257610137565b806318160ddd116100ff57806318160ddd146101f45780631c351a9d1461021257806323b872dd1461022e5780632efc44b41461024a57806342842e0e1461026657610137565b806301ffc9a71461013c57806306fdde031461016c578063075461721461018a578063081812fc146101a8578063095ea7b3146101d8575b600080fd5b61015660048036038101906101519190611f02565b610432565b6040516101639190612401565b60405180910390f35b610174610514565b604051610181919061241c565b60405180910390f35b6101926105a6565b60405161019f919061237f565b60405180910390f35b6101c260048036038101906101bd9190611fe9565b6105cc565b6040516101cf919061237f565b60405180910390f35b6101f260048036038101906101ed9190611ec6565b610651565b005b6101fc610769565b604051610209919061265e565b60405180910390f35b61022c60048036038101906102279190611f95565b61076f565b005b61024860048036038101906102439190611dc0565b610915565b005b610264600480360381019061025f9190611f54565b610975565b005b610280600480360381019061027b9190611dc0565b610982565b005b61029c60048036038101906102979190611fe9565b6109a2565b6040516102a9919061237f565b60405180910390f35b6102cc60048036038101906102c79190611d5b565b610a54565b6040516102d9919061265e565b60405180910390f35b6102fc60048036038101906102f79190611f54565b610b0c565b6040516103099190612401565b60405180910390f35b61032c60048036038101906103279190611fe9565b610b42565b604051610339919061241c565b60405180910390f35b61034a610bee565b604051610357919061241c565b60405180910390f35b61037a60048036038101906103759190611e8a565b610c80565b005b61039660048036038101906103919190611e0f565b610e01565b005b6103b260048036038101906103ad9190611fe9565b610e63565b6040516103bf919061241c565b60405180910390f35b6103e260048036038101906103dd9190611d84565b610f0a565b6040516103ef9190612401565b60405180910390f35b610400610f9e565b60405161040d919061239a565b60405180910390f35b610430600480360381019061042b9190611d5b565b610fc4565b005b60007f80ac58cd000000000000000000000000000000000000000000000000000000007bffffffffffffffffffffffffffffffffffffffffffffffffffffffff1916827bffffffffffffffffffffffffffffffffffffffffffffffffffffffff191614806104fd57507f5b5e139f000000000000000000000000000000000000000000000000000000007bffffffffffffffffffffffffffffffffffffffffffffffffffffffff1916827bffffffffffffffffffffffffffffffffffffffffffffffffffffffff1916145b8061050d575061050c82611098565b5b9050919050565b606060008054610523906128c6565b80601f016020809104026020016040519081016040528092919081815260200182805461054f906128c6565b801561059c5780601f106105715761010080835404028352916020019161059c565b820191906000526020600020905b81548152906001019060200180831161057f57829003601f168201915b5050505050905090565b600660009054906101000a900473ffffffffffffffffffffffffffffffffffffffff1681565b60006105d782611102565b610616576040517f08c379a000000000000000000000000000000000000000000000000000000000815260040161060d906125be565b60405180910390fd5b6004600083815260200190815260200160002060009054906101000a900473ffffffffffffffffffffffffffffffffffffffff169050919050565b600061065c826109a2565b90508073ffffffffffffffffffffffffffffffffffffffff168373ffffffffffffffffffffffffffffffffffffffff1614156106cd576040517f08c379a00000000000000000000000000000000000000000000000000000000081526004016106c49061261e565b60405180910390fd5b8073ffffffffffffffffffffffffffffffffffffffff166106ec61116e565b73ffffffffffffffffffffffffffffffffffffffff16148061071b575061071a8161071561116e565b610f0a565b5b61075a576040517f08c379a00000000000000000000000000000000000000000000000000000000081526004016107519061253e565b60405180910390fd5b6107648383611176565b505050565b600a5481565b600660009054906101000a900473ffffffffffffffffffffffffffffffffffffffff1673ffffffffffffffffffffffffffffffffffffffff163373ffffffffffffffffffffffffffffffffffffffff16146107ff576040517f08c379a00000000000000000000000000000000000000000000000000000000081526004016107f69061249e565b60405180910390fd5b600015156009836040516108139190612344565b908152602001604051809103902060009054906101000a900460ff16151514610871576040517f08c379a00000000000000000000000000000000000000000000000000000000081526004016108689061243e565b60405180910390fd5b6008829080600181540180825580915050600190039060005260206000200160009091909190915090805190602001906108ac929190611b7f565b50600060088054905090506108c1828261122f565b60016009846040516108d39190612344565b908152602001604051809103902060006101000a81548160ff021916908315150217905550600a600081548092919061090b90612929565b9190505550505050565b61092661092061116e565b8261124d565b610965576040517f08c379a000000000000000000000000000000000000000000000000000000000815260040161095c9061263e565b60405180910390fd5b61097083838361132b565b505050565b61097f813361076f565b50565b61099d83838360405180602001604052806000815250610e01565b505050565b6000806002600084815260200190815260200160002060009054906101000a900473ffffffffffffffffffffffffffffffffffffffff169050600073ffffffffffffffffffffffffffffffffffffffff168173ffffffffffffffffffffffffffffffffffffffff161415610a4b576040517f08c379a0000000000000000000000000000000000000000000000000000000008152600401610a429061257e565b60405180910390fd5b80915050919050565b60008073ffffffffffffffffffffffffffffffffffffffff168273ffffffffffffffffffffffffffffffffffffffff161415610ac5576040517f08c379a0000000000000000000000000000000000000000000000000000000008152600401610abc9061255e565b60405180910390fd5b600360008373ffffffffffffffffffffffffffffffffffffffff1673ffffffffffffffffffffffffffffffffffffffff168152602001908152602001600020549050919050565b6009818051602081018201805184825260208301602085012081835280955050505050506000915054906101000a900460ff1681565b60088181548110610b5257600080fd5b906000526020600020016000915090508054610b6d906128c6565b80601f0160208091040260200160405190810160405280929190818152602001828054610b99906128c6565b8015610be65780601f10610bbb57610100808354040283529160200191610be6565b820191906000526020600020905b815481529060010190602001808311610bc957829003601f168201915b505050505081565b606060018054610bfd906128c6565b80601f0160208091040260200160405190810160405280929190818152602001828054610c29906128c6565b8015610c765780601f10610c4b57610100808354040283529160200191610c76565b820191906000526020600020905b815481529060010190602001808311610c5957829003601f168201915b5050505050905090565b610c8861116e565b73ffffffffffffffffffffffffffffffffffffffff168273ffffffffffffffffffffffffffffffffffffffff161415610cf6576040517f08c379a0000000000000000000000000000000000000000000000000000000008152600401610ced906124de565b60405180910390fd5b8060056000610d0361116e565b73ffffffffffffffffffffffffffffffffffffffff1673ffffffffffffffffffffffffffffffffffffffff16815260200190815260200160002060008473ffffffffffffffffffffffffffffffffffffffff1673ffffffffffffffffffffffffffffffffffffffff16815260200190815260200160002060006101000a81548160ff0219169083151502179055508173ffffffffffffffffffffffffffffffffffffffff16610db061116e565b73ffffffffffffffffffffffffffffffffffffffff167f17307eab39ab6107e8899845ad3d59bd9653f200f220920489ca2b5937696c3183604051610df59190612401565b60405180910390a35050565b610e12610e0c61116e565b8361124d565b610e51576040517f08c379a0000000000000000000000000000000000000000000000000000000008152600401610e489061263e565b60405180910390fd5b610e5d84848484611587565b50505050565b6060610e6e82611102565b610ead576040517f08c379a0000000000000000000000000000000000000000000000000000000008152600401610ea4906125fe565b60405180910390fd5b6000610eb76115e3565b90506000815111610ed75760405180602001604052806000815250610f02565b80610ee1846115fa565b604051602001610ef292919061235b565b6040516020818303038152906040525b915050919050565b6000600560008473ffffffffffffffffffffffffffffffffffffffff1673ffffffffffffffffffffffffffffffffffffffff16815260200190815260200160002060008373ffffffffffffffffffffffffffffffffffffffff1673ffffffffffffffffffffffffffffffffffffffff16815260200190815260200160002060009054906101000a900460ff16905092915050565b600760009054906101000a900473ffffffffffffffffffffffffffffffffffffffff1681565b600760009054906101000a900473ffffffffffffffffffffffffffffffffffffffff1673ffffffffffffffffffffffffffffffffffffffff163373ffffffffffffffffffffffffffffffffffffffff1614611054576040517f08c379a000000000000000000000000000000000000000000000000000000000815260040161104b906124fe565b60405180910390fd5b80600660006101000a81548173ffffffffffffffffffffffffffffffffffffffff021916908373ffffffffffffffffffffffffffffffffffffffff16021790555050565b60007f01ffc9a7000000000000000000000000000000000000000000000000000000007bffffffffffffffffffffffffffffffffffffffffffffffffffffffff1916827bffffffffffffffffffffffffffffffffffffffffffffffffffffffff1916149050919050565b60008073ffffffffffffffffffffffffffffffffffffffff166002600084815260200190815260200160002060009054906101000a900473ffffffffffffffffffffffffffffffffffffffff1673ffffffffffffffffffffffffffffffffffffffff1614159050919050565b600033905090565b816004600083815260200190815260200160002060006101000a81548173ffffffffffffffffffffffffffffffffffffffff021916908373ffffffffffffffffffffffffffffffffffffffff160217905550808273ffffffffffffffffffffffffffffffffffffffff166111e9836109a2565b73ffffffffffffffffffffffffffffffffffffffff167f8c5be1e5ebec7d5bd14f71427d1e84f3dd0314c0f7b2291e5b200ac8c7c3b92560405160405180910390a45050565b6112498282604051806020016040528060008152506117a7565b5050565b600061125882611102565b611297576040517f08c379a000000000000000000000000000000000000000000000000000000000815260040161128e9061251e565b60405180910390fd5b60006112a2836109a2565b90508073ffffffffffffffffffffffffffffffffffffffff168473ffffffffffffffffffffffffffffffffffffffff16148061131157508373ffffffffffffffffffffffffffffffffffffffff166112f9846105cc565b73ffffffffffffffffffffffffffffffffffffffff16145b8061132257506113218185610f0a565b5b91505092915050565b8273ffffffffffffffffffffffffffffffffffffffff1661134b826109a2565b73ffffffffffffffffffffffffffffffffffffffff16146113a1576040517f08c379a0000000000000000000000000000000000000000000000000000000008152600401611398906125de565b60405180910390fd5b600073ffffffffffffffffffffffffffffffffffffffff168273ffffffffffffffffffffffffffffffffffffffff161415611411576040517f08c379a0000000000000000000000000000000000000000000000000000000008152600401611408906124be565b60405180910390fd5b61141c838383611802565b611427600082611176565b6001600360008573ffffffffffffffffffffffffffffffffffffffff1673ffffffffffffffffffffffffffffffffffffffff168152602001908152602001600020600082825461147791906127ca565b925050819055506001600360008473ffffffffffffffffffffffffffffffffffffffff1673ffffffffffffffffffffffffffffffffffffffff16815260200190815260200160002060008282546114ce9190612743565b92505081905550816002600083815260200190815260200160002060006101000a81548173ffffffffffffffffffffffffffffffffffffffff021916908373ffffffffffffffffffffffffffffffffffffffff160217905550808273ffffffffffffffffffffffffffffffffffffffff168473ffffffffffffffffffffffffffffffffffffffff167fddf252ad1be2c89b69c2b068fc378daa952ba7f163c4a11628f55a4df523b3ef60405160405180910390a4505050565b61159284848461132b565b61159e84848484611807565b6115dd576040517f08c379a00000000000000000000000000000000000000000000000000000000081526004016115d49061245e565b60405180910390fd5b50505050565b606060405180602001604052806000815250905090565b60606000821415611642576040518060400160405280600181526020017f300000000000000000000000000000000000000000000000000000000000000081525090506117a2565b600082905060005b6000821461167457808061165d90612929565b915050600a8261166d9190612799565b915061164a565b60008167ffffffffffffffff8111156116b6577f4e487b7100000000000000000000000000000000000000000000000000000000600052604160045260246000fd5b6040519080825280601f01601f1916602001820160405280156116e85781602001600182028036833780820191505090505b5090505b6000851461179b5760018261170191906127ca565b9150600a856117109190612972565b603061171c9190612743565b60f81b818381518110611758577f4e487b7100000000000000000000000000000000000000000000000000000000600052603260045260246000fd5b60200101907effffffffffffffffffffffffffffffffffffffffffffffffffffffffffffff1916908160001a905350600a856117949190612799565b94506116ec565b8093505050505b919050565b6117b1838361199e565b6117be6000848484611807565b6117fd576040517f08c379a00000000000000000000000000000000000000000000000000000000081526004016117f49061245e565b60405180910390fd5b505050565b505050565b60006118288473ffffffffffffffffffffffffffffffffffffffff16611b6c565b15611991578373ffffffffffffffffffffffffffffffffffffffff1663150b7a0261185161116e565b8786866040518563ffffffff1660e01b815260040161187394939291906123b5565b602060405180830381600087803b15801561188d57600080fd5b505af19250505080156118be57506040513d601f19601f820116820180604052508101906118bb9190611f2b565b60015b611941573d80600081146118ee576040519150601f19603f3d011682016040523d82523d6000602084013e6118f3565b606091505b50600081511415611939576040517f08c379a00000000000000000000000000000000000000000000000000000000081526004016119309061245e565b60405180910390fd5b805181602001fd5b63150b7a0260e01b7bffffffffffffffffffffffffffffffffffffffffffffffffffffffff1916817bffffffffffffffffffffffffffffffffffffffffffffffffffffffff191614915050611996565b600190505b949350505050565b600073ffffffffffffffffffffffffffffffffffffffff168273ffffffffffffffffffffffffffffffffffffffff161415611a0e576040517f08c379a0000000000000000000000000000000000000000000000000000000008152600401611a059061259e565b60405180910390fd5b611a1781611102565b15611a57576040517f08c379a0000000000000000000000000000000000000000000000000000000008152600401611a4e9061247e565b60405180910390fd5b611a6360008383611802565b6001600360008473ffffffffffffffffffffffffffffffffffffffff1673ffffffffffffffffffffffffffffffffffffffff1681526020019081526020016000206000828254611ab39190612743565b92505081905550816002600083815260200190815260200160002060006101000a81548173ffffffffffffffffffffffffffffffffffffffff021916908373ffffffffffffffffffffffffffffffffffffffff160217905550808273ffffffffffffffffffffffffffffffffffffffff16600073ffffffffffffffffffffffffffffffffffffffff167fddf252ad1be2c89b69c2b068fc378daa952ba7f163c4a11628f55a4df523b3ef60405160405180910390a45050565b600080823b905060008111915050919050565b828054611b8b906128c6565b90600052602060002090601f016020900481019282611bad5760008555611bf4565b82601f10611bc657805160ff1916838001178555611bf4565b82800160010185558215611bf4579182015b82811115611bf3578251825591602001919060010190611bd8565b5b509050611c019190611c05565b5090565b5b80821115611c1e576000816000905550600101611c06565b5090565b6000611c35611c308461269e565b612679565b905082815260208101848484011115611c4d57600080fd5b611c58848285612884565b509392505050565b6000611c73611c6e846126cf565b612679565b905082815260208101848484011115611c8b57600080fd5b611c96848285612884565b509392505050565b600081359050611cad81612ecb565b92915050565b600081359050611cc281612ee2565b92915050565b600081359050611cd781612ef9565b92915050565b600081519050611cec81612ef9565b92915050565b600082601f830112611d0357600080fd5b8135611d13848260208601611c22565b91505092915050565b600082601f830112611d2d57600080fd5b8135611d3d848260208601611c60565b91505092915050565b600081359050611d5581612f10565b92915050565b600060208284031215611d6d57600080fd5b6000611d7b84828501611c9e565b91505092915050565b60008060408385031215611d9757600080fd5b6000611da585828601611c9e565b9250506020611db685828601611c9e565b9150509250929050565b600080600060608486031215611dd557600080fd5b6000611de386828701611c9e565b9350506020611df486828701611c9e565b9250506040611e0586828701611d46565b9150509250925092565b60008060008060808587031215611e2557600080fd5b6000611e3387828801611c9e565b9450506020611e4487828801611c9e565b9350506040611e5587828801611d46565b925050606085013567ffffffffffffffff811115611e7257600080fd5b611e7e87828801611cf2565b91505092959194509250565b60008060408385031215611e9d57600080fd5b6000611eab85828601611c9e565b9250506020611ebc85828601611cb3565b9150509250929050565b60008060408385031215611ed957600080fd5b6000611ee785828601611c9e565b9250506020611ef885828601611d46565b9150509250929050565b600060208284031215611f1457600080fd5b6000611f2284828501611cc8565b91505092915050565b600060208284031215611f3d57600080fd5b6000611f4b84828501611cdd565b91505092915050565b600060208284031215611f6657600080fd5b600082013567ffffffffffffffff811115611f8057600080fd5b611f8c84828501611d1c565b91505092915050565b60008060408385031215611fa857600080fd5b600083013567ffffffffffffffff811115611fc257600080fd5b611fce85828601611d1c565b9250506020611fdf85828601611c9e565b9150509250929050565b600060208284031215611ffb57600080fd5b600061200984828501611d46565b91505092915050565b61201b81612810565b82525050565b61202a816127fe565b82525050565b61203981612822565b82525050565b600061204a82612700565b6120548185612716565b9350612064818560208601612893565b61206d81612a5f565b840191505092915050565b60006120838261270b565b61208d8185612727565b935061209d818560208601612893565b6120a681612a5f565b840191505092915050565b60006120bc8261270b565b6120c68185612738565b93506120d6818560208601612893565b80840191505092915050565b60006120ef600a83612727565b91506120fa82612a70565b602082019050919050565b6000612112603283612727565b915061211d82612a99565b604082019050919050565b6000612135601c83612727565b915061214082612ae8565b602082019050919050565b6000612158601283612727565b915061216382612b11565b602082019050919050565b600061217b602483612727565b915061218682612b3a565b604082019050919050565b600061219e601983612727565b91506121a982612b89565b602082019050919050565b60006121c1601183612727565b91506121cc82612bb2565b602082019050919050565b60006121e4602c83612727565b91506121ef82612bdb565b604082019050919050565b6000612207603883612727565b915061221282612c2a565b604082019050919050565b600061222a602a83612727565b915061223582612c79565b604082019050919050565b600061224d602983612727565b915061225882612cc8565b604082019050919050565b6000612270602083612727565b915061227b82612d17565b602082019050919050565b6000612293602c83612727565b915061229e82612d40565b604082019050919050565b60006122b6602983612727565b91506122c182612d8f565b604082019050919050565b60006122d9602f83612727565b91506122e482612dde565b604082019050919050565b60006122fc602183612727565b915061230782612e2d565b604082019050919050565b600061231f603183612727565b915061232a82612e7c565b604082019050919050565b61233e8161287a565b82525050565b600061235082846120b1565b915081905092915050565b600061236782856120b1565b915061237382846120b1565b91508190509392505050565b60006020820190506123946000830184612021565b92915050565b60006020820190506123af6000830184612012565b92915050565b60006080820190506123ca6000830187612021565b6123d76020830186612021565b6123e46040830185612335565b81810360608301526123f6818461203f565b905095945050505050565b60006020820190506124166000830184612030565b92915050565b600060208201905081810360008301526124368184612078565b905092915050565b60006020820190508181036000830152612457816120e2565b9050919050565b6000602082019050818103600083015261247781612105565b9050919050565b6000602082019050818103600083015261249781612128565b9050919050565b600060208201905081810360008301526124b78161214b565b9050919050565b600060208201905081810360008301526124d78161216e565b9050919050565b600060208201905081810360008301526124f781612191565b9050919050565b60006020820190508181036000830152612517816121b4565b9050919050565b60006020820190508181036000830152612537816121d7565b9050919050565b60006020820190508181036000830152612557816121fa565b9050919050565b600060208201905081810360008301526125778161221d565b9050919050565b6000602082019050818103600083015261259781612240565b9050919050565b600060208201905081810360008301526125b781612263565b9050919050565b600060208201905081810360008301526125d781612286565b9050919050565b600060208201905081810360008301526125f7816122a9565b9050919050565b60006020820190508181036000830152612617816122cc565b9050919050565b60006020820190508181036000830152612637816122ef565b9050919050565b6000602082019050818103600083015261265781612312565b9050919050565b60006020820190506126736000830184612335565b92915050565b6000612683612694565b905061268f82826128f8565b919050565b6000604051905090565b600067ffffffffffffffff8211156126b9576126b8612a30565b5b6126c282612a5f565b9050602081019050919050565b600067ffffffffffffffff8211156126ea576126e9612a30565b5b6126f382612a5f565b9050602081019050919050565b600081519050919050565b600081519050919050565b600082825260208201905092915050565b600082825260208201905092915050565b600081905092915050565b600061274e8261287a565b91506127598361287a565b9250827fffffffffffffffffffffffffffffffffffffffffffffffffffffffffffffffff0382111561278e5761278d6129a3565b5b828201905092915050565b60006127a48261287a565b91506127af8361287a565b9250826127bf576127be6129d2565b5b828204905092915050565b60006127d58261287a565b91506127e08361287a565b9250828210156127f3576127f26129a3565b5b828203905092915050565b60006128098261285a565b9050919050565b600061281b8261285a565b9050919050565b60008115159050919050565b60007fffffffff0000000000000000000000000000000000000000000000000000000082169050919050565b600073ffffffffffffffffffffffffffffffffffffffff82169050919050565b6000819050919050565b82818337600083830152505050565b60005b838110156128b1578082015181840152602081019050612896565b838111156128c0576000848401525b50505050565b600060028204905060018216806128de57607f821691505b602082108114156128f2576128f1612a01565b5b50919050565b61290182612a5f565b810181811067ffffffffffffffff821117156129205761291f612a30565b5b80604052505050565b60006129348261287a565b91507fffffffffffffffffffffffffffffffffffffffffffffffffffffffffffffffff821415612967576129666129a3565b5b600182019050919050565b600061297d8261287a565b91506129888361287a565b925082612998576129976129d2565b5b828206905092915050565b7f4e487b7100000000000000000000000000000000000000000000000000000000600052601160045260246000fd5b7f4e487b7100000000000000000000000000000000000000000000000000000000600052601260045260246000fd5b7f4e487b7100000000000000000000000000000000000000000000000000000000600052602260045260246000fd5b7f4e487b7100000000000000000000000000000000000000000000000000000000600052604160045260246000fd5b6000601f19601f8301169050919050565b7f6c696e6b2074616b656e00000000000000000000000000000000000000000000600082015250565b7f4552433732313a207472616e7366657220746f206e6f6e20455243373231526560008201527f63656976657220696d706c656d656e7465720000000000000000000000000000602082015250565b7f4552433732313a20746f6b656e20616c7265616479206d696e74656400000000600082015250565b7f61646472657373206e6f74206d696e7465720000000000000000000000000000600082015250565b7f4552433732313a207472616e7366657220746f20746865207a65726f2061646460008201527f7265737300000000000000000000000000000000000000000000000000000000602082015250565b7f4552433732313a20617070726f766520746f2063616c6c657200000000000000600082015250565b7f61646472657373206e6f742061646d696e000000000000000000000000000000600082015250565b7f4552433732313a206f70657261746f7220717565727920666f72206e6f6e657860008201527f697374656e7420746f6b656e0000000000000000000000000000000000000000602082015250565b7f4552433732313a20617070726f76652063616c6c6572206973206e6f74206f7760008201527f6e6572206e6f7220617070726f76656420666f7220616c6c0000000000000000602082015250565b7f4552433732313a2062616c616e636520717565727920666f7220746865207a6560008201527f726f206164647265737300000000000000000000000000000000000000000000602082015250565b7f4552433732313a206f776e657220717565727920666f72206e6f6e657869737460008201527f656e7420746f6b656e0000000000000000000000000000000000000000000000602082015250565b7f4552433732313a206d696e7420746f20746865207a65726f2061646472657373600082015250565b7f4552433732313a20617070726f76656420717565727920666f72206e6f6e657860008201527f697374656e7420746f6b656e0000000000000000000000000000000000000000602082015250565b7f4552433732313a207472616e73666572206f6620746f6b656e2074686174206960008201527f73206e6f74206f776e0000000000000000000000000000000000000000000000602082015250565b7f4552433732314d657461646174613a2055524920717565727920666f72206e6f60008201527f6e6578697374656e7420746f6b656e0000000000000000000000000000000000602082015250565b7f4552433732313a20617070726f76616c20746f2063757272656e74206f776e6560008201527f7200000000000000000000000000000000000000000000000000000000000000602082015250565b7f4552433732313a207472616e736665722063616c6c6572206973206e6f74206f60008201527f776e6572206e6f7220617070726f766564000000000000000000000000000000602082015250565b612ed4816127fe565b8114612edf57600080fd5b50565b612eeb81612822565b8114612ef657600080fd5b50565b612f028161282e565b8114612f0d57600080fd5b50565b612f198161287a565b8114612f2457600080fd5b5056fea264697066735822122014714cacbf1d0d3029eafa53e6a7c6d52f9fb0fbbb811583b73e0d55b15bf27e64736f6c63430008010033",
  "immutableReferences": {},
  "source": "pragma solidity >=0.4.22 <0.9.0;\n\nimport \"@openzeppelin/contracts/token/ERC721/ERC721.sol\";\n\ncontract NftR is ERC721 {\n\n  address public minter;\n  address payable public admin;\n  string[] public links;\n  mapping(string=>bool) public linkGenerated;\n  uint256 public totalSupply = 0;\n\n  constructor() ERC721(\"NftR\", \"NftR\") public {\n    admin = payable(msg.sender);\n    minter = address(this);\n  }\n\n  function setMinter(address _minter) public{\n    require(msg.sender == admin, 'address not admin');\n    minter = _minter;\n  }\n\n  function mint(string memory _link, address _to) public {\n    require(msg.sender == minter, 'address not minter');\n    require(linkGenerated[_link] == false, 'link taken');\n    links.push(_link);\n    uint256 _id = links.length;\n    _safeMint(_to, _id);\n    linkGenerated[_link] = true;\n    totalSupply++;\n  }\n  \n  function mintExtern(string memory _link) public{\n    mint(_link, msg.sender);\n  }\n\n}",
  "sourcePath": "/Users/anupamkumar/blockchain/NFTr/contracts/NftR.sol",
  "compiler": {
    "name": "solc",
    "version": "0.8.1+commit.df193b15.Emscripten.clang"
  },
  "schemaVersion": "3.4.1",
  "updatedAt": "2021-07-03T14:02:01.666Z",
  "networkType": "ethereum",
  "devdoc": {
    "kind": "dev",
    "methods": {
      "approve(address,uint256)": {
        "details": "See {IERC721-approve}."
      },
      "balanceOf(address)": {
        "details": "See {IERC721-balanceOf}."
      },
      "getApproved(uint256)": {
        "details": "See {IERC721-getApproved}."
      },
      "isApprovedForAll(address,address)": {
        "details": "See {IERC721-isApprovedForAll}."
      },
      "name()": {
        "details": "See {IERC721Metadata-name}."
      },
      "ownerOf(uint256)": {
        "details": "See {IERC721-ownerOf}."
      },
      "safeTransferFrom(address,address,uint256)": {
        "details": "See {IERC721-safeTransferFrom}."
      },
      "safeTransferFrom(address,address,uint256,bytes)": {
        "details": "See {IERC721-safeTransferFrom}."
      },
      "setApprovalForAll(address,bool)": {
        "details": "See {IERC721-setApprovalForAll}."
      },
      "supportsInterface(bytes4)": {
        "details": "See {IERC165-supportsInterface}."
      },
      "symbol()": {
        "details": "See {IERC721Metadata-symbol}."
      },
      "tokenURI(uint256)": {
        "details": "See {IERC721Metadata-tokenURI}."
      },
      "transferFrom(address,address,uint256)": {
        "details": "See {IERC721-transferFrom}."
      }
    },
    "version": 1
  },
  "userdoc": {
    "kind": "user",
    "methods": {},
    "version": 1
  }
}